:020000040000FA
:1000000000002100EF308C0024008C012200A03081
:100010009800103099008C014530F0005730F10005
:100020009F30F200F230F300D730F400C830F50012
:100030007930F600F801F9016C30FA003930FB0034
:10004000730EF700730DF706F70DF00DF10DF20DBD
:10005000F30D760CF700F70C760EF706F70CF40D9F
:10006000F50DF60D0130F8070030F93D78089E20B7
:100070000B00422846284A284E28522856285A283B
:100080005E2862287A1075187A148528FA10751877
:10009000FA1485287A1175187A158528FA117518B9
:1000A000FA1585287A1275187A168528FA127518A5
:1000B000FA1685287A1375187A178528FA13751891
:1000C000FA17852879083F399E200B006D28712882
:1000D000752879287D28812890287B1075187B1435
:1000E0009028FB107518FB1490287B1175187B1550
:1000F0009028FB117518FB1590287B1275187B163C
:100100009028FB127518FB169028000000000000D4
:1001100000000000000000000000000000000000DF
:100120007B1373187B177A089F21F7007B089F21A8
:10013000F7077735990073088C0020280B000034EE
:100140000134003402340034013400340334003408
:1001500001340034023400340134003404340034F7
:1001600001340034023400340134003403340034E8
:1001700001340034023400340134003405340034D6
:1001800001340034023400340134003403340034C8
:1001900001340034023400340134003404340034B7
:1001A00001340034023400340134003403340034A8
:1001B0000134003402340034013400340634003495
:1001C0000134003402340034013400340334003488
:1001D0000134003402340034013400340434003477
:1001E0000134003402340034013400340334003468
:1001F0000134003402340034013400340534003456
:100200000134003402340034013400340334003447
:100210000134003402340034013400340434003436
:100220000134003402340034013400340334003427
:100230000134003402340034013400340734003413
:100240000134003402340034013400340334003407
:1002500001340034023400340134003404340034F6
:1002600001340034023400340134003403340034E7
:1002700001340034023400340134003405340034D5
:1002800001340034023400340134003403340034C7
:1002900001340034023400340134003404340034B6
:1002A00001340034023400340134003403340034A7
:1002B0000134003402340034013400340634003494
:1002C0000134003402340034013400340334003487
:1002D0000134003402340034013400340434003476
:1002E0000134003402340034013400340334003467
:1002F0000134003402340034013400340534003455
:100300000134003402340034013400340334003446
:100310000134003402340034013400340434003435
:100320000134003402340034013400340334003426
:1003300001340034023400340134003408340B003A
:100340000034013401340234013402340234033401
:1003500001340234023403340234033403340434E9
:1003600001340234023403340234033403340434D9
:1003700002340334033404340334043404340534C1
:1003800001340234023403340234033403340434B9
:1003900002340334033404340334043404340534A1
:1003A0000234033403340434033404340434053491
:1003B0000334043404340534043405340534063479
:1003C0000134023402340334023403340334043479
:1003D0000234033403340434033404340434053461
:1003E0000234033403340434033404340434053451
:1003F0000334043404340534043405340534063439
:100400000234033403340434033404340434053430
:100410000334043404340534043405340534063418
:100420000334043404340534043405340534063408
:1004300004340534053406340534063406340734F0
:1004400001340234023403340234033403340434F8
:1004500002340334033404340334043404340534E0
:1004600002340334033404340334043404340534D0
:1004700003340434043405340434053405340634B8
:1004800002340334033404340334043404340534B0
:100490000334043404340534043405340534063498
:1004A0000334043404340534043405340534063488
:1004B0000434053405340634053406340634073470
:1004C0000234033403340434033404340434053470
:1004D0000334043404340534043405340534063458
:1004E0000334043404340534043405340534063448
:1004F0000434053405340634053406340634073430
:100500000334043404340534043405340534063427
:10051000043405340534063405340634063407340F
:1005200004340534053406340534063406340734FF
:1005300005340634063407340634073407340834E7
:04054000003400344F
:020000040001F9
:02000E008C174D
:02001000322795
:02001200FF1FCE
:02001400FF3FAC
:00000001FF